:020000040800F2
:1000000000100020450000084100000841000008E1
:100010004100000841000008410000080000000005
:100020000000000000000000000000004100000887
:1000300041000008000000004100000841000008E5
:1000400000BFFDE730B472B64FF4C6054FF4C004EC
:100050000022174B1748996941F0040199619B6987
:10006000C0F81058D0F8003823F07F6323F0FF0366
:1000700043F0087343F08803C0F80038C0F8104814
:100080001346D0F8082802F00302934209D05340E7
:1000900002EA0301490123EA020341EA4353C0F89B
:1000A00010384FF4487300BF013BFCD1E8E700BFB4
:0800B0000010024000000140B5
:0400000508000045AA
:00000001FF
