:020000040800F2
:1000000000100020450000084100000841000008E1
:100010004100000841000008410000080000000005
:100020000000000000000000000000004100000887
:1000300041000008000000004100000841000008E5
:1000400000BFFDE710B472B64FF0000C4FF404147B
:10005000174B4FF400109A69164942F004029A6156
:1000600062469B69C1F81048D1F8003823F4700348
:1000700023F00F03034343F00803C1F80038C1F82D
:100080001008D1F80838104613F001020AD048B918
:10009000BCF1010F14BF20234FF400138CF0010CAE
:1000A000C1F810384FF4487300BF013BFCD1E8E7BA
:0800B0000010024000000140B5
:0400000508000045AA
:00000001FF
